:100000000C94EF000C9417010C9417010C94170139
:100010000C9417010C9417010C9417010C94170100
:100020000C9417010C9417010C94C6060C942F071E
:100030000C9417010C9417010C9417010C941701E0
:100040000C9417010C9417010C9417010C941701D0
:100050000C9417010C9417010C9417010C9471095E
:100060000C9417010C9417010C9417010C941701B0
:100070000C9417010C9417010C9417010C941701A0
:100080000C9417010C9417010C9417010C94170190
:100090000C9417010C9417010C9417010C94170180
:1000A0000C9417010C9417010C9417014E414E4902
:1000B0004E495459494E46CDCCCC3D0AD7233C1726
:1000C000B7D13877CC2B329595E6241FB14F0A0073
:1000D0000020410000C84200401C4620BCBE4CCA63
:1000E0001B0E5AAEC59D7400000000240027002A94
:1000F000002D00300000000000250028002B002EFD
:10010000003100000000002300260029002C002FF1
:1001100000040404040403040502020202040302AE
:10012000020202060606060606040402020204048F
:1001300004080201104080401020408040800802E6
:100140000401804020100201108010204040200057
:1001500000000200090F0000030401000C00000071
:100160000000000000000000000000000000080B7C
:100170000002020200000904000001020200000562
:1001800024001001052401010104240206052406AF
:1001900000010705810310004009040100020A0064
:1001A000000007050202400000070583024000002E
:1001B0000403090412010002EF0201409A230C809B
:1001C00000010102030141646166727569740046B1
:1001D000656174686572203332753400FA0F11243A
:1001E0001FBECFEFDAE0DEBFCDBF23E0AEE4B2E06A
:1001F00001C01D92A43DB207E1F712E0A0E0B1E01A
:10020000E6E0F9E202C005900D92AE34B107D9F7ED
:1002100010E0CFEED0E004C02197FE010E945C14F4
:10022000CE3ED107C9F70E94EE090C9481140C94BC
:10023000000090918103911103C08FEF9FEF08950B
:100240004FB7F89492E09093E9009091F200292F33
:1002500030E01216130614F421E030E0232B29F0CD
:1002600084E6809380038091F100992339F02091F6
:10027000F200211103C02BE62093E8004FBF992321
:10028000E1F290E008952FB7F89483E08093E900BD
:100290009091E800892F807295FF04C09091F20040
:1002A00080E4891B2FBF08958091780381110DC0D0
:1002B00082E08093740384E0809375031092770347
:1002C0001092760381E08093780384E793E00895A9
:1002D000409156025091570220915402309155029C
:1002E00042175307B4F49091E8009570E1F39091B0
:1002F000E80092FD19C08093F10080915602909120
:10030000570201968F739927892B19F48EEF8093EA
:10031000E8008091560290915702019690935702FF
:100320008093560281E0089580E00895DF92EF9275
:10033000FF920F931F93CF93DF93D82E8A01EB0187
:100340007B01E40EF51ECE15DF0559F0D7FE12C075
:10035000FE0184910E94680121968111F4CF0FEF74
:100360001FEFC801DF91CF911F910F91FF90EF9088
:10037000DF9008958881EECF0F931F93CF93DF9383
:100380001F92CDB7DEB782E0898342E450E06EE68B
:1003900071E080E80E9496010E945401DC011296EF
:1003A0000D911C910115110589F0D801ED91FC9179
:1003B0000280F381E02DBE016F5F7F4FC801099578
:1003C00097FD04C0F80100851185ECCF89810F905D
:1003D000DF91CF911F910F910895CF93DF931F92DB
:1003E000CDB7DEB76983DC01ED91FC910280F3812A
:1003F000E02D41E050E0BE016F5F7F4F09950F9007
:10040000DF91CF91089583E08093E9008091F2001D
:10041000882319F08AE38093E80008950E9443013D
:1004200090E00895FC018485958597FD05C02FEF28
:100430003FEF3587248708950C941901CF93DF93FC
:10044000EC018C859D8597FF04C00E9419019D8752
:100450008C878C859D85DF91CF910895FC018485E3
:10046000958597FD0BC09FB7F89482E08093E900D3
:100470008091F2009FBF90E0019608959FB7F89495
:1004800082E08093E9008091F2009FBF90E00895A0
:1004900081508F3008F047C0E82FF0E0EE5AFD4F52
:1004A0000C945C146F027302610267026B02930288
:1004B0009302930276027C02800284028A029302F3
:1004C0008E02809180008F778093800008958091C4
:1004D00080008F7DF9CF80918000877FF5CF84B534
:1004E0008F7784BD089584B58F7DFBCF8091900078
:1004F0008F77809390000895809190008F7DF9CF41
:1005000080919000877FF5CF8091C0008F77809396
:10051000C00008958091C0008F7DF9CF8091C20006
:10052000877F8093C2000895CF93DF93282F30E018
:10053000F901E15BFE4F8491F901E05DFE4FD4913A
:10054000F901EF5EFE4FC491CC23A1F081110E940E
:100550004802EC2FF0E0EE0FFF1FED5FFE4FA5917C
:10056000B491EC91ED2381E090E009F480E0DF911B
:10057000CF91089580E090E0FACF1F93CF93DF935F
:10058000282F30E0F901E15BFE4F8491F901E05D35
:10059000FE4FD491F901EF5EFE4FC491CC23A9F038
:1005A000162F81110E944802EC2FF0E0EE0FFF1F82
:1005B000EB50FF4FA591B4918FB7F894EC911111C6
:1005C00008C0D095DE23DC938FBFDF91CF911F91C0
:1005D0000895DE2BF8CFCF93DF9390E0FC01E05D30
:1005E000FE4F24918F5E9E4FFC0184918823D1F0B1
:1005F00090E0880F991FFC01E951FF4FA591B4913C
:10060000FC01EB50FF4FC591D49161110EC09FB713
:10061000F8948C91E22FE0958E238C932881E2232D
:10062000E8839FBFDF91CF9108958FB7F894EC9145
:10063000E22BEC938FBFF6CF3FB7F8948091500236
:1006400090915102A0915202B091530226B5A89BFD
:1006500005C02F3F19F00196A11DB11D3FBFBA2F54
:10066000A92F982F8827BC01CD01620F711D811D14
:10067000911D43E0660F771F881F991F4A95D1F798
:1006800008958F929F92AF92BF92CF92DF92EF9296
:10069000FF924B015C010E941C036B017C010E94D4
:1006A0001C036C197D098E099F09683E7340810502
:1006B0009105A8F321E0821A9108A108B10888EEFB
:1006C000C80E83E0D81EE11CF11C81149104A10422
:1006D000B10429F7FF90EF90DF90CF90BF90AF90DB
:1006E0009F908F9008958F929F92AF92BF92CF92DA
:1006F000DF92EF92FF920F931F93CF93DF936C01E2
:100700007B018A0180910B01882309F45BC08091F1
:100710008103882309F456C080915A0280FF05C0E6
:100720008091E00082608093E000E801B12C8AEFC4
:10073000A82E93E0892E2AE3922E209711F4BB2055
:10074000D9F10E94430181110AC0AA94AA20D1F1D3
:1007500061E070E080E090E00E944103EECF8C17F2
:100760001D0611F00CF08C2F9FB7F8948092E900D1
:100770002091E80025FD02C09FBFDFCF282F30E089
:10078000C21BD30BF701815020F041914093F1003F
:10079000FACFE20EF31EBB2021F09092E800B12CBC
:1007A000EBCF8091E80085FDE7CF9092E800BB2475
:1007B000B394209709F3F3CF84E68093590210167F
:1007C00011063CF081E090E0F6019383828310E013
:1007D00000E0C801DF91CF911F910F91FF90EF9042
:1007E000DF90CF90BF90AF909F908F90089561E081
:1007F00088E00C94BD0260E088E00C94BD028EBDE0
:1008000000000DB407FEFDCF8EB50895CF93DF93A2
:10081000D82FC62F0E94FB038D2F80680E94FF03F4
:100820008C2F0E94FF03DF91CF910C94F703CF939D
:10083000C82F0E94FB038C2F0E94FF0380E00E94C0
:10084000FF03C82F0E94F7038C2FCF910895FC015E
:1008500001900020E9F73197AF01481B590BBC010B
:1008600082E893E00C947303CF93DF93682F82E8C0
:1008700093E00E94ED01EC018AE291E00E942704DE
:100880008C0F9D1FDF91CF9108958FE30C9434045A
:100890008AE20C9434048F929F92AF92BF920F938E
:1008A0001F93CF93DF93CDB7DEB7A1970FB6F89420
:1008B000DEBF0FBECDBF19A2423008F44AE08E0160
:1008C0000F5D1F4F842E912CB12CA12CA5019401FA
:1008D0000E943A14E62FB901CA01EA30F4F4E05D4F
:1008E000D801EE938D01232B242B252B79F790E053
:1008F00080E0109719F0CD010E942704A1960FB651
:10090000F894DEBF0FBECDBFDF91CF911F910F9145
:10091000BF90AF909F908F900895E95CE1CFCF9307
:10092000DF93D0E0C0E0009719F00E942704EC01AB
:100930008AE291E00E9427048C0F9D1FDF91CF91E6
:100940000895009711F00C94270490E080E008953A
:10095000CF92DF92EF92FF92CF93DF936C01990FCA
:10096000EE08FF08F7FE1FC06DE282E893E00E94E8
:10097000ED01EC0166277727CB016C197D098E0903
:100980009F094AE00E944B04C80FD91F8AE291E0F8
:100990000E9427048C0F9D1FDF91CF91FF90EF9055
:1009A000DF90CF9008954AE0C701B6010E944B0442
:1009B000EC01ECCF4F925F926F927F928F929F9259
:1009C000AF92BF92CF92DF92EF92FF920F931F935D
:1009D000CF936B017C01742EAC019B010E943514F6
:1009E000882399F08DE291E0CF911F910F91FF90B4
:1009F000EF90DF90CF90BF90AF909F908F907F90BF
:100A00006F905F904F900C94270446015701E89433
:100A1000B7F82FEF3FEF4FE75FE7C501B4010E9442
:100A2000351481110DC02FEF3FEF4FE75FE7C50190
:100A3000B4010E94AA1118161CF481E391E0D4CFEE
:100A40002FEF3FEF4FE75FE4C701B6010E9430147C
:100A500018161CF485E391E0C7CF2FEF3FEF4FE767
:100A60005FECC701B6010E94AA1187FDF3CF20E019
:100A700030E0A901C701B6010E94AA1110E000E010
:100A800087FF0AC06DE282E893E00E94ED018C01CD
:100A9000F7FAF094F7F8F094C0E060E070E080E0DE
:100AA0009FE37C1641F020E030E040E251E40E94F8
:100AB0008F13CF5FF6CFA70196010E9423132B015E
:100AC0003C010E9401144B015C014AE00E944B046E
:100AD0007C01E00EF11ECC23C1F1C501B4010E94DE
:100AE000AF119B01AC01C301B2010E9422134B0163
:100AF0005C016EE282E893E00E94ED01E80EF91ECF
:100B0000C15018F120E030E040E251E4C501B401E9
:100B10000E9410122B013C010E9401144B01B12CC8
:100B2000A12C4AE0C501B4010E944B04E80EF91E55
:100B3000C501B4010E94AF119B01AC01C301B20118
:100B40000E9422134B015C01DBCFC701CF911F91A3
:100B50000F91FF90EF90DF90CF90BF90AF909F905C
:100B60008F907F906F905F904F900895CF92DF921B
:100B7000EF92FF92CF93DF9380911001803839F08C
:100B800060E881E00E94060480E88093100160E83C
:100B900081E00E94060480911001803839F060E8FD
:100BA00081E00E94060480E88093100120E030E09C
:100BB00049ED5AE460910C0170910D0180910E0194
:100BC00090910F010E94101220E030E049ED53E4B3
:100BD0000E948F130E9401146B017C0189E391E054
:100BE0000E94A1044AE0C701B6010E944B048AE2B8
:100BF00091E00E942704B7018827992786E00E9488
:100C0000060499278F2D7E2D6D2D87E00E94060406
:100C10006C2D88E00E9406046091600280915E0263
:100C2000682B80916603682B8DE10E940604C091B9
:100C30005C02D0915D026C2F64608EE10E9406041C
:100C400060916202646086E20E94060481E30E9471
:100C50001704887F63E0C036D10509F465E0682B8E
:100C600081E30E9406046AE0C036D10509F46CE015
:100C700087E30E94060460E080E40E9406046FEFB0
:100C800082E20E9406046FEF83E10E94060460E0A6
:100C90008FE00E94060460E08DE00E9406048091CF
:100CA00010018538D9F060E089E00E94060463E213
:100CB0008CE00E94060465E881E00E94060485E855
:100CC000809310016AE070E080E090E0DF91CF91C6
:100CD000FF90EF90DF90CF900C944103DF91CF9184
:100CE000FF90EF90DF90CF900895CF9361E084E084
:100CF0000E94EB0261E084E00E94BD026AE070E0C5
:100D000080E090E00E94410361E088E00E94EB02F5
:100D100060E087E00E94EB02CFB7F89480914E022A
:100D2000811127C0E2E2F1E08491E1E4F1E09491E5
:100D3000E82FF0E0EE0FFF1FE951FF4FA591B491AE
:100D4000EC91E92321F461E081E10E94BD0261E0C0
:100D500081E10E94EB028CB580618CBD8CB5806412
:100D60008CBD61E08FE00E94EB0261E080E10E94B7
:100D7000EB0280914E028F5F80934E02CFBF0E94A4
:100D8000B6058CE491E0CF910C948F041F920F92E2
:100D90000FB60F9211248F939F938091E100909151
:100DA000E100937F9093E10083FF0FC01092E90070
:100DB00091E09093EB001092EC0092E39093ED00A1
:100DC0001092810398E09093F00082FF1CC093E0A2
:100DD0009093E9009091F200992319F09AE390938F
:100DE000E80090915902992329F09091590291506D
:100DF0009093590290918003992329F09091800358
:100E000091509093800384FF18C08091E2008E7E01
:100E100081608093E2008091E1008F7E8093E10009
:100E200080915A028E7E806180935A029F918F91A9
:100E30000F900FBE0F901F90189580FFF7CF8091F5
:100E4000E2008E7E80618093E2008091E1008E7EE0
:100E50008093E10080915A028E7E8160E5CF1F92DF
:100E60000F920FB60F921124CF92DF92EF92FF9262
:100E70000F931F932F933F934F935F936F937F93A2
:100E80008F939F93AF93BF93EF93FF93CF93DF9392
:100E9000CDB7DEB76C97DEBFCDBF1092E900809171
:100EA000E80083FF2FC089E0FE017596EE2EDF2E4D
:100EB000815029F09091F10090833196F9CF84E62A
:100EC0008093800382EF8093E8008D8987FF39C08B
:100ED0009091E80090FFFCCF982F907609F033C1F5
:100EE0009E894F89588D2F89F88C911131C0803897
:100EF00061F580915B028093F1001092F1008EEF1A
:100F00008093E8006C960FB6F894DEBF0FBECDBF9D
:100F1000DF91CF91FF91EF91BF91AF919F918F9111
:100F20007F916F915F914F913F912F911F910F9101
:100F3000FF90EF90DF90CF900F900FBE0F901F901B
:100F400018959EEF9093E800C7CF1092F100D5CF8F
:100F5000913059F48111D3CF4130510581F6809100
:100F60005B028D7F80935B02CACF933049F481117D
:100F7000C6CF4130510519F680915B028260F2CFF5
:100F8000953041F48091E80080FFFCCF20682093E9
:100F9000E300B5CF963009F0A8C00B8D1C8D22E080
:100FA0001092E9001092570210925602F2122EC0CF
:100FB00010925502109254020E94BC011F8299E0C7
:100FC0009983FA8291E09E8390EA98879AEF9987B5
:100FD0002091560230915702275F3F4F3C832B836D
:100FE0008D831092E90010925702109256021093CE
:100FF00055020093540249E050E0BE016F5F7F4FFD
:1010000080E00E9496010E94BC0179CF10935502A6
:10101000009354020E945401DC0112960D911C9120
:101020000115110509F457C1D801ED91FC91048017
:10103000F581E02D6E2D7D2DC8010995009709F0F1
:1010400045C1F80100851185EBCFF3E0FF120EC01A
:101050008F89882309F440C0823061F440E86CE055
:101060008FEC91E00E94BB09811149CF81E280930E
:10107000EB0048CF813029F440E868E086EC91E04D
:10108000F1CF833099F70E945401DC011296ED9064
:10109000FC908E010F5F1F4F6801E114F10479F09D
:1010A000D701ED91FC910680F781E02DB801C701D1
:1010B0000995080F111DF701E084F184EECFD801E6
:1010C0001C92F60101900020E9F73197BF016C19DD
:1010D0007D0940E0C601C6CF60EB71E0FB014491A1
:1010E00050E080E80E9496010ACF973009F4BECF05
:1010F000983021F481E08093F10001CF993009F01C
:10110000FECE837009F0B2CFE4E2F1E081E031E09D
:1011100096E32191222371F08093E9003093EB0054
:10112000DF0111972C912093EC009093ED008F5FDD
:10113000873079F78EE78093EA001092EA008F8972
:1011400080938103DCCE8B8D9C8D1092E9001092F0
:101150005702109256029093550280935402898D43
:1011600081119AC08E899D89913A49F4813209F0A2
:101170007DCF47E050E064E071E080E0B3CF913292
:1011800009F074CF833269F48F89988DB0E0A0E0C4
:101190008093000190930101A0930201B093030199
:1011A000AECE8032A9F48091E80082FFFCCF88E0C7
:1011B000E4E0F1E0815029F09091F10090833196C4
:1011C000F9CF84E6809380038BEF8093E80097CE7D
:1011D000823209F094CE8F8980930B01EEEFFFE706
:1011E000859194918B3F9C4D51F1E0E0F8E0809126
:1011F000040190910501A0910601B0910701803B87
:101200009440A105B105F1F480910B0180FD1AC055
:10121000EE3F8AE0F80789F587E797E791838083B7
:10122000809160008093580288E19BE00FB6F894AB
:10123000A895809360000FBE9093600060CEEEEFA3
:10124000FAE0D5CF808191818737974709F057CE53
:10125000A895809160008861809360008091580219
:1012600080936000EE3F2AE0F20789F08091FE0A49
:101270009091FF0A9183808342CE8081918187374C
:10128000980751F29093FF0A8093FE0AC5CF1092FF
:10129000FF0A1092FE0A33CE0E945401DC0112961E
:1012A0000D911C910115110509F4E0CED801ED91C5
:1012B000FC910190F081E02D6E2D7D2DC8010995E6
:1012C00081111DCEF80100851185ECCF1816190685
:1012D0000CF415CECBCEF1E0FF12B7CE64EB71E08B
:1012E000FDCE1F920F920FB60F9211242F933F93B2
:1012F0008F939F93AF93BF9380916C0390916D03F5
:10130000A0916E03B0916F0330914F0226E0230F3E
:101310002D3758F50296A11DB11D20934F028093E1
:101320006C0390936D03A0936E03B0936F03809151
:10133000500290915102A0915202B0915302019635
:10134000A11DB11D8093500290935102A0935202AF
:10135000B0935302BF91AF919F918F913F912F9185
:101360000F900FBE0F901F90189529E8230F03963A
:10137000A11DB11DD2CFEF92FF920F931F93CF9378
:10138000DF93F82E192FE62E042F81E0860F880FA9
:101390000E94680183E00E946801CF2DD12FEC0EDE
:1013A000FD2EF11CCE15DF05B9F007FF13C0FE01BD
:1013B00084910E946801182F80E00E9468018123B7
:1013C00021968111EFCFDF91CF911F910F91FF9067
:1013D000EF9008958881EDCF81E0F5CFCF93DF9333
:1013E000CDB7DEB7DA950FB6F894DEBF0FBECDBF2E
:1013F000789484B5826084BD84B5816084BD85B5F0
:10140000826085BD85B5816085BD80916E008160FB
:1014100080936E00109281008091810082608093A1
:1014200081008091810081608093810080918000A3
:101430008160809380008091910082608093910010
:1014400080919100816080939100809190008160F3
:10145000809390008091C10084608093C10080914E
:10146000C10082608093C1008091C100816080933F
:10147000C1008091C30081608093C3008091C0004F
:1014800082608093C0008091C20081608093C2001E
:1014900080917A00846080937A0080917A008260E3
:1014A00080937A0080917A008E7F80937A00809179
:1014B0007A00806880937A001092810310925B0218
:1014C00010925A028091D70081608093D70080EA01
:1014D0008093D80089B58F7E89BD89B5826089BD2A
:1014E00009B400FEFDCF61E070E080E090E00E9472
:1014F00041038091D8008F7C80618093D8008091D7
:10150000E000807F8093E0008091E1008E7E8093F8
:10151000E1008DE08093E20061E08BE00E94EB024D
:1015200061E08BE00E94BD028FEF9FEF90938F03ED
:1015300080938E038CE291E00E948F048BE591E012
:101540000E948F0483E791E00E94A10486E891E065
:101550000E948F048CE291E00E948F04109263023B
:101560001092620281E090E09093610280936002A9
:1015700082E090E090935F0280935E0280E390E0CF
:10158000909367038093660380E690E090935D02FA
:1015900080935C020E94750660E08BE00E94BD02B1
:1015A000F0E82F2E312C70E5872E912CE0E3AE2E43
:1015B000B12C82E893E00E942E027C01892B09F471
:1015C000C8C282E893E00E9412028E3749F48093E9
:1015D000660221E030E03093650220936402E9CF97
:1015E00020916402309165022F3F310531F028F0DF
:1015F0001092650210926402DCCF21153105C9F208
:10160000F901EA59FD4F8D3009F09BC2108280919B
:101610006702863491F588E692E00E940F106B0114
:101620007C0120E030E0A90160910C0170910D0176
:1016300080910E0190910F010E9430141816D4F47D
:101640000E944804C0920C01D0920D01E0920E015C
:10165000F0920F018AE891E00E94A10442E0C701E4
:10166000B6010E94DA048AE291E00E9427040E94F7
:10167000B605BECF0E944504BBCF8D3409F0C5C06E
:1016800088E692E00E9413108C01089798F70E9458
:10169000480410926302109262020730110589F427
:1016A000109261021092600282E090E090935F02DB
:1016B00080935E02B0926703A092660380E790E099
:1016C0002DC006301105B9F4E1E0F0E0F0936102BD
:1016D000E093600282E090E090935F0280935E026C
:1016E000909267038092660320E630E030935D02BB
:1016F00020935C0217C005301105E1F410926102DD
:101700001092600288E090E090935F0280935E0206
:10171000909267038092660380EB90E090935D0265
:1017200080935C0285E991E00E94A104C8010E94B7
:10173000A8049DCF0430110589F4E1E0F0E0F093B6
:101740006102E093600282E090E090935F028093F8
:101750005E023092670320926603C6CF0330110504
:1017600079F4109261021092600284E090E090930C
:101770005F0280935E0230926703209266039ECFE1
:1017800002301105A9F41092610210926002E8E0A3
:10179000F0E0F0935F02E0935E0220E630E03093E9
:1017A00067032093660330925D0220925C02BACFF9
:1017B0000130110589F4109361020093600282E008
:1017C00090E090935F0280935E02B0926703A092D4
:1017D000660380E690E0A2CF109261021092600250
:1017E000E8E0F0E0F0935F02E0935E02B0926703FE
:1017F000A092660380EB90E090935D0280935C0280
:10180000F0936302E09362028DCF823409F0B5C099
:101810008BE991E00E94A10468E672E0FB0101906F
:101820000020E9F7BF016956724090E080E04AE08D
:101830000E944B0483EA91E00E94A10488E692E0B2
:101840000E94A10486EA91E00E948F0468EA71E098
:1018500088E692E00E947814892B39F40E944804AB
:10186000109267031092660302CF6CEA71E088E67B
:1018700092E00E947814892B49F40E94480420E1E8
:1018800030E03093670320936603F1CE61EB71E0A3
:1018900088E692E00E947814892B49F40E9448045B
:1018A00080E290E09093670380936603E0CE66EB5E
:1018B00071E088E692E00E947814892B39F40E9446
:1018C0004804B0926703A0926603D1CE6BEB71E03F
:1018D00088E692E00E947814892B49F40E9448041B
:1018E000E0E4F0E0F0936703E0936603C0CE61ECC0
:1018F00071E088E692E00E947814892B39F40E9406
:1019000048049092670380926603B1CE66EC71E062
:1019100088E692E00E947814892B29F40E944804FA
:1019200020E630E0AECF6BEC71E088E692E00E94FA
:101930007814892B29F40E94480480E790E0B2CF04
:1019400060ED71E088E692E00E947814892B39F40A
:101950000E944804309267032092660388CE65EDAA
:1019600071E088E692E00E947814892B09F082CE1B
:101970000E944804E0E9F0E0B5CF8534A1F488E6A0
:1019800092E00E9413108C010597049708F072CE24
:101990000E94480404501109000F111F10935F02A8
:1019A00000935E0264CE8335A9F488E692E00E943B
:1019B00013108C010697079708F05CCE0E9448042C
:1019C00054E0000F111F5A95E1F710935D02009348
:1019D0005C024DCE893491F488E692E00E941310A7
:1019E0008C010E94480481E090E0012B11F490E00A
:1019F00080E0909361028093600239CE8C3489F448
:101A000088E692E00E9413108C010E9448040115A0
:101A1000110511F008E010E01093610200936002DC
:101A200026CE843509F074C00E9448046BE271E050
:101A300088E692E00E9462148091600290916102B7
:101A40000FEF10E0019749F008E612E0F80101906D
:101A50000020E9F78F01085612408AED91E00E94BC
:101A60008F0480911001813869F061E881E00E9463
:101A7000060481E8809310016AE070E080E090E065
:101A80000E94410360E480E40E94060460E08EE06E
:101A90000E94060460E08DE00E940604602F82E24E
:101AA0000E9406040E94FB0380E80E94FF0346E6B2
:101AB000E42E42E0F42EF70182810E94FF03FFEF43
:101AC000EF1AFF0AC70186569240801791079CF3D0
:101AD0000E94F703809110018338A9F060E08CE048
:101AE0000E94060468E889E00E94060463E881E039
:101AF0000E94060483E8809310016AE070E080E0B1
:101B000090E00E94410361E08BE00E94BD0270CD35
:101B1000863559F40E94480480EE91E00E94A104A9
:101B200086E891E00E948F0463CD843409F0A2CD51
:101B30000E94480489EE91E00E94A1048BE591E0A7
:101B4000F1CF2F5F3F4F3093650220936402808373
:101B500030CD809110018338C9F487E00E9494024F
:101B6000892B61F060E08BE00E94BD0281EF91E083
:101B70000E948F040E9475060E94B60580E090E0E6
:101B8000892B09F410CD0E9400000DCD80916803CF
:101B900090916903A0916A03B0916B03892B8A2B02
:101BA0008B2B21F12FB7F89480916C0390916D03EA
:101BB000A0916E03B0916F032FBF409168035091C5
:101BC000690360916A0370916B0384179507A607F8
:101BD000B70760F060E08BE00E94BD0210926803DE
:101BE0001092690310926A0310926B0387E00E94BF
:101BF0009402892B09F4D9C061E08BE00E94BD02F8
:101C00002FB7F89480916C0390916D03A0916E03AF
:101C1000B0916F032FBF88519C4FAF4FBF4F809340
:101C2000680390936903A0936A03B0936B0382E106
:101C30000E941704D82E6FEF82E10E9406048E01E5
:101C40000F5F1F4FD5FE01C188EF91E00E948F0406
:101C500060E282E10E94060484E092E00E94A10416
:101C600088E20E941704877090E0B0E0A0E088242A
:101C7000982EA92EBA2E89E20E941704880E911C74
:101C8000A11CB11CBA2CA92C982C88248AE20E9491
:101C90001704880E911CA11CB11C88E20E94170435
:101CA00083FF03C0F8E0AF1AB108C501B4010E9478
:101CB000B1112DEB37E346E05FE30E9410124B01B8
:101CC0005C0180916603909167038034910509F46B
:101CD00025C10CF0E8C08031910509F40FC10CF06A
:101CE000D4C0892B09F402C120E034E244EF58E467
:101CF000C301B2010E948F13A50194010E9410122A
:101D0000905820E030E04AE754E40E948F1342E00C
:101D10000E94DA048AE291E00E94270489E10E948D
:101D20001704C82ED12CD594C794D594C79420E01D
:101D300030E443E054E460910C0170910D01809116
:101D40000E0190910F010E94301418160CF006C17C
:101D50008AE10E941704282F2D59330B59018DE079
:101D600092E00E94A104C5010E94A80489E192E0CA
:101D70000E94A104C6010E94A80484E292E00E948D
:101D8000A104C7010E94A804C8010E948F04E114A5
:101D9000F10459F08981843209F0E8C083E392E0CC
:101DA0000E94A104C8010E948F042FB7F89480916B
:101DB0006C0390916D03A0916E03B0916F032FBFE0
:101DC000409170035091710360917203709173039D
:101DD00084179507A607B70708F4D0CE20E030E4B3
:101DE00043E054E460910C0170910D0180910E016B
:101DF00090910F010E94301418160CF0F3C08BE183
:101E00000E941704282F2D59330B890181E492E099
:101E10000E94A104C8010E94A8042FB7F8948091E1
:101E20006C0390916D03A0916E03B0916F032FBF6F
:101E300088519C4FAF4FBF4F8093700390937103B5
:101E4000A0937203B093730399CE80E10E941704AC
:101E5000D82E83E10E941704E82EF12C6D2D8DE021
:101E60000E9406046801C601801B910B8E159F0518
:101E70003CF480E00E941704F60181936F01F3CFD8
:101E8000F801EE0DFF1D1082E7CE80329105F1F1D1
:101E9000C09709F029CF412C70E8572E72EA672EBF
:101EA00076E4772E21CF8037910509F447C07CF482
:101EB00080359105D9F18036910509F015CF412C77
:101EC00044E2542E44E7642E47E4742E0DCF80384C
:101ED0009105E1F18039910509F006CF412C94E29A
:101EE000592E94EF692E98E4792EFECE412CA0EC69
:101EF0005A2EA3EF6A2EA5E47A2EF6CE412CF0E8F6
:101F00005F2EF2E26F2EF6E47F2EEECE412CE0EC57
:101F10005E2EE3E76E2EE6E47E2EE6CE412C64E2F2
:101F2000562E64EF662E66E4762EDECE412C54EEFD
:101F3000552E52E2652E57E4752ED6CE412C34E252
:101F4000532E34EF632E37E4732ECECE412C24E291
:101F5000522E24E7622E28E4722EC6CE8AE10E9419
:101F60001704E82FE45AFF0B5F01F9CE8532C1F464
:101F700084E289836AE070E0C8010E946D147C01EC
:101F8000009709F412CFFC01108283E392E00E94D3
:101F9000A104C8010E948F0487010F5F1F4FEACF81
:101FA0008CE392E00E94A1046801F60181916F0127
:101FB000803120F488E891E00E94A104F601319775
:101FC000608170E090E080E040E10E944B04C60137
:101FD000801B910B8E159F0544F38AE291E00E94CD
:101FE0002704E3CE8BE10E941704E82FE45AFF0B8D
:101FF0008F010CCFE2E8F3E01382128288EE93E0C7
:10200000A0E0B0E084839583A683B78385E191E067
:10201000918380838FEF9FEF95878487089566274C
:1020200077270C943910FC0188279927E89421918F
:102030002032E9F3293010F02E30C8F32B3241F072
:102040002D3239F4689404C00E943110820F911D22
:10205000219120532A30C0F31EF4909581959F4F13
:1020600008957AE0979F902D879F802D910D1124E0
:102070000895B0E0A0E0EFE3F0E10C94E2125C011F
:102080007B016115710519F0DB018D939C9385012E
:102090000F5F1F4FF501D0818D2F90E00E948911B5
:1020A0006C01892BB9F5DD32B9F50F5F1F4FD501F2
:1020B0001196DC91C1E05801F1E0AF1AB10843E09C
:1020C00050E064EB70E0C5010E949211892B69F524
:1020D000680182E0C80ED11C45E050E06FEA70E074
:1020E000C6010E949211892B21F4680197E0C90E64
:1020F000D11CE114F10419F0D701CD92DC9260E01B
:1021000070E080E89FEFC111FFC060E070E080E800
:102110009FE7FAC05801BBCFDB3229F485010E5F7F
:102120001F4FF501D181C0E0C6CF43E050E06CEA1B
:1021300070E0C5010E949211892BE9F0F80110E0CE
:1021400000E020E030E0A9015F01B0ED8B2E8D0EA4
:1021500089E08815C8F19C2E689491F88C2F8870BE
:10216000C2FF16C0811102C00F5F1F4F3196D5010B
:10217000DC91C92DE9CFE114F10429F00E5F1F4F66
:10218000F7011183008360E070E080EC9FE7BCC042
:10219000882311F001501109A5E0B0E00E94D1128E
:1021A0009B01AC01220F331F441F551F280D311D09
:1021B000411D511D283999E93907490799E1590706
:1021C000A8F2C6609C2ED2CFAEEF8A1206C0C3FD25
:1021D0003CC09C2E689493F8C9CFDF7DD534A9F517
:1021E00080818D3239F4C061DF011296818162E015
:1021F00070E006C0DF018B32C1F3119661E070E040
:1022000080535D01A61AB70A8A30F8F4E0E8CE16CA
:10221000ECE0DE065CF4B601660F771F660F771FF1
:10222000C60ED71ECC0CDD1CC80ED11C5D01FFEF05
:10223000AF1ABF0A8C9180538A30A8F1C4FF03C043
:10224000D194C194D1080C0D1D1DC1FF09C0E1142A
:10225000F10431F081E0A81AB108D701AD92BC9227
:10226000CA01B9010E94AF11C370C33009F490587C
:102270004B015C0120E030E0A9010E94AA118823F3
:1022800009F440C0C3EED0E017FF05C011950195D9
:102290001109CBECD0E06E01B8E1CB1AD10880E295
:1022A000E82EF12C0FC0D501B1CFFE01259135915B
:1022B000459154910E191F09C501B4010E941012D5
:1022C0004B015C01D501C4010E151F0574F724975D
:1022D000F594E794CC16DD06A9F78A2F880F8B2F8B
:1022E000881F8F3F49F020E030E0A901C501B4010B
:1022F0000E94AA11811106C082E290E09093D3035C
:102300008093D203C501B401CDB7DEB7ECE00C94E5
:10231000FE1291110C947D12803219F08950855073
:10232000C8F70895FB01DC014150504088F08D91C1
:1023300081341CF08B350CF4805E659161341CF0A7
:102340006B350CF4605E861B611171F3990B089577
:10235000881BFCCF0E94EC1108F481E00895E894FA
:1023600009C097FB3EF490958095709561957F4FDD
:102370008F4F9F4F9923A9F0F92F96E9BB2793958B
:10238000F695879577956795B795F111F8CFFAF49B
:10239000BB0F11F460FF1BC06F5F7F4F8F4F9F4FCC
:1023A00016C0882311F096E911C0772321F09EE82A
:1023B000872F762F05C0662371F096E8862F70E090
:1023C00060E02AF09A95660F771F881FDAF7880F6A
:1023D0009695879597F90895990F0008550FAA0BC0
:1023E000E0E8FEEF16161706E807F907C0F0121628
:1023F0001306E407F50798F0621B730B840B950B2B
:1024000039F40A2661F0232B242B252B21F408957F
:102410000A2609F4A140A6958FEF811D811D08951C
:102420000E9423120C9497120E94891238F00E9485
:10243000901220F0952311F00C9480120C948612C7
:1024400011240C94CB120E94A81270F3959FC1F333
:10245000950F50E0551F629FF001729FBB27F00D52
:10246000B11D639FAA27F00DB11DAA1F649F6627A7
:10247000B00DA11D661F829F2227B00DA11D621FF6
:10248000739FB00DA11D621F839FA00D611D221FB0
:10249000749F3327A00D611D231F849F600D211D94
:1024A000822F762F6A2F11249F5750409AF0F1F017
:1024B00088234AF0EE0FFF1FBB1F661F771F881F80
:1024C00091505040A9F79E3F510580F00C94801226
:1024D0000C94CB125F3FE4F3983ED4F38695779546
:1024E0006795B795F795E7959F5FC1F7FE2B880F26
:1024F000911D9695879597F90895992788270895AE
:1025000097F99F6780E870E060E008959FEF80ECA6
:10251000089500240A941616170618060906089549
:1025200000240A9412161306140605060895092EAF
:102530000394000C11F4882352F0BB0F40F4BF2B1E
:1025400011F460FF04C06F5F7F4F8F4F9F4F08955E
:1025500057FD9058440F551F59F05F3F71F0479554
:10256000880F97FB991F61F09F3F79F08795089539
:10257000121613061406551FF2CF4695F1DF08C058
:10258000161617061806991FF1CF86957105610575
:1025900008940895E894BB2766277727CB0197F91D
:1025A00008950E941313A59F900DB49F900DA49FB2
:1025B000800D911D112408952F923F924F925F92AA
:1025C0006F927F928F929F92AF92BF92CF92DF9243
:1025D000EF92FF920F931F93CF93DF93CDB7DEB7A8
:1025E000CA1BDB0B0FB6F894DEBF0FBECDBF09943C
:1025F0002A88398848885F846E847D848C849B8493
:10260000AA84B984C884DF80EE80FD800C811B81A0
:10261000AA81B981CE0FD11D0FB6F894DEBF0FBECF
:10262000CDBFED010895A29FB001B39FC001A39F4C
:10263000700D811D1124911DB29F700D811D1124FB
:10264000911D08955058BB27AA270E943A130C9455
:1026500097120E94891238F00E94901220F039F4EB
:102660009F3F19F426F40C9486120EF4E095E7FBD4
:102670000C948012E92F0E94A81258F3BA1762072F
:1026800073078407950720F079F4A6F50C94CA1215
:102690000EF4E0950B2EBA2FA02D0B01B90190017D
:1026A0000C01CA01A0011124FF27591B99F0593FC1
:1026B00050F4503E68F11A16F040A22F232F342F09
:1026C0004427585FF3CF469537952795A795F04057
:1026D0005395C9F77EF41F16BA0B620B730B840B6C
:1026E000BAF09150A1F0FF0FBB1F661F771F881F24
:1026F000C2F70EC0BA0F621F731F841F48F487957C
:1027000077956795B795F7959E3F08F0B0CF93956D
:10271000880F08F09927EE0F9795879508950E94E6
:10272000A3130C9497120E94901258F00E948912E1
:1027300040F029F45F3F29F00C94801251110C9461
:10274000CB120C9486120E94A81268F39923B1F35D
:10275000552391F3951B550BBB27AA2762177307C7
:10276000840738F09F5F5F4F220F331F441FAA1F5B
:10277000A9F335D00E2E3AF0E0E832D09150504017
:10278000E695001CCAF72BD0FE2F29D0660F771FC5
:10279000881FBB1F261737074807AB07B0E809F0AB
:1027A000BB0B802DBF01FF2793585F4F3AF09E3F30
:1027B000510578F00C9480120C94CB125F3FE4F337
:1027C000983ED4F3869577956795B795F7959F5F73
:1027D000C9F7880F911D9695879597F90895E1E0BF
:1027E000660F771F881FBB1F621773078407BA071E
:1027F00020F0621B730B840BBA0BEE1F88F7E09579
:1028000008950E94B01288F09F5798F0B92F992729
:10281000B751B0F0E1F0660F771F881F991F1AF0CB
:10282000BA95C9F714C0B13091F00E94CA12B1E054
:1028300008950C94CA12672F782F8827B85F39F053
:10284000B93FCCF3869577956795B395D9F73EF464
:1028500090958095709561957F4F8F4F9F4F08950C
:102860000E94EC1108F48FEF08950E94EC11880B80
:10287000990B0895A1E21A2EAA1BBB1BFD010DC0E6
:10288000AA1FBB1FEE1FFF1FA217B307E407F50720
:1028900020F0A21BB30BE40BF50B661F771F881FFC
:1028A000991F1A9469F760957095809590959B0192
:1028B000AC01BD01CF010895EE0FFF1F0590F4910B
:1028C000E02D0994FB01DC010D900020E9F7119740
:1028D00001900D920020E1F70895FC018191861787
:1028E00021F08823D9F7992708953197CF010895CA
:1028F000FB01DC018D91019080190110D9F3990B36
:062900000895F894FFCFDA
:10290600FFFFFFFF00E10000000000005839D94337
:102916008100000000ED0173030E0203022E021275
:10292600021E0200C180810000000D0A006E616E69
:1029360000696E66006F7666004672657175656E33
:10294600637956616C7565206973200053657475EB
:102956007020436F6D706C657465004C6F526147F3
:102966006F20555342204F54472052656365697660
:102976006572004C6F526120555342205265636563
:10298600697665722000322E300046726571756573
:102996006E63793D004D6F64653D004257206C655E
:1029A6006E3D00203C003E00374B380031304B3442
:1029B6000031354B360032304B380033314B32352F
:1029C6000034314B370036324B35003132354B004F
:1029D6003235304B003530304B0054783D4F4E0089
:1029E60056657273696F6E3D004465766963653D31
:1029F6000054783D4F464600435243204661696C79
:102A060075726500467265714572723D005061636C
:102A16006B6574525353493D005061636B65745343
:102A26004E523D005061636B65742073697A652070
:102A36003D20004D6573736167653D004865783DCF
:0E2A46000043757272656E74525353493D0021
:1070000055C000006EC000006CC000006AC00000E7
:1070100068C0000066C0000064C0000062C00000DC
:1070200060C000005EC00000DAC400005AC000006A
:1070300058C0000056C0000054C0000052C00000FC
:1070400050C0000076C000004CC000004AC00000E4
:1070500048C0000046C0000044C0000042C000001C
:1070600040C000003EC000003CC000003AC000002C
:1070700038C0000036C0000034C0000032C000003C
:1070800030C000002EC000002CC000002AC000004C
:1070900028C0000026C0000024C0000022C000005C
:1070A00020C000001EC000001CC0000011241FBE34
:1070B000CFEFDAE0DEBFCDBF11E0A0E0B1E0EEEF50
:1070C000FEE702C005900D92AA3CB107D9F711E086
:1070D000AAECB1E001C01D92A03EB107E1F781D357
:1070E0000CC78ECFF89410926F001092810010920E
:1070F00085001092840081E085BF15BE47980C94EE
:10710000000008952091D4013091D5012F5F3F4FA9
:107110003093D5012093D401932F37FF03C08EEF16
:10712000831B982F990F921710F447980895479A48
:1071300008951F920F920FB60F9211242F938F93E1
:107140009F93EF93FF93109285001092840080919B
:10715000CA019091CB01009729F001979093CB0140
:107160008093CA018091CC019091CD01009729F0C4
:1071700001979093CD018093CC01E0E0F0E0859100
:1071800094918F5F9F4F49F08091CE019091CF01F4
:1071900001969093CF018093CE01FF91EF919F9143
:1071A0008F912F910F900FBE0F901F90189584E034
:1071B0008093E9000DC08091E8008B778093E80010
:1071C00003C08EB3882351F08091E80082FFF9CF8D
:1071D0008091E80085FFEFCF8091F1000895982F0E
:1071E00083E08093E9008091E80085FD0DC08091E7
:1071F000E8008E778093E80003C08EB3882361F0A7
:107200008091E80080FFF9CF9093F10084E690E050
:107210009093CB018093CA0108954F925F926F9231
:107220007F928F929F92AF92BF92CF92DF92EF9216
:10723000FF920F931F93CF93DF9384E08093E90035
:107240008091E80082FF56C284E690E09093CD01E1
:107250008093CC01ACDF182F853481F48CE195E26A
:107260009093CF018093CE0107B600FCFDCFF99932
:10727000FECF81E180935700E89503C0843519F46F
:1072800096DF8DE00DC28C34E1F38035D1F3843785
:1072900021F484E4A4DF80E003C2813611F489E59F
:1072A000FFC18134B1F483DF182F81DF90E0880FB4
:1072B000991FAA2797FDA095BA2F312F330F20E0F1
:1072C000442737FD4095542F822B932BA42BB52BAD
:1072D000B8C1803711F483E5E3C1833549F4C0E0D8
:1072E000D1E089917CDF21E0C730D207D1F7D9C145
:1072F000863521F481E373DF80E3D2C1833731F433
:1073000087E86DDF85E96BDF8EE1CAC18536B9F4A8
:10731000E0E0F0E093E085E090935700E89507B651
:1073200000FCFDCF80935700E89507B600FCFDCF29
:10733000E058FF4FA0E7E030FA0771F7A2CF82379D
:1073400039F4E1E0F0E089E0809357008491A8C12E
:10735000863439F4E0E0F0E089E0809357008491CE
:107360009FC18E3439F4E3E0F0E089E08093570068
:10737000849196C1813539F4E2E0F0E089E08093B0
:10738000570084918DC1823631F489E528DF80E091
:1073900026DF80E885C1823419F0873609F0E5C020
:1073A0001092CF011092CE0102DF082F00DFF82EDD
:1073B000FEDE682E8554823008F071C1902F80E087
:1073C000CF2DD0E0C82BD92B10926F00173609F0C3
:1073D0004BC081E180935700E895DD24CC24C39411
:1073E0003FC0E090D001F090D1010091D201109106
:1073F000D301B6E46B16D9F4ED2DF0E0EE29FF29A8
:10740000E4918E2FECDEDD2081F082E090E0A0E0C0
:10741000B0E0E80EF91E0A1F1B1FE092D001F092A7
:10742000D1010093D2011093D301DC2418C0D801FC
:10743000C701B695A7959795879549D5D0DE82E087
:1074400090E0A0E0B0E0E80EF91E0A1F1B1FE092DA
:10745000D001F092D1010093D2011093D301219772
:10746000209709F0BECF7DC08090D0019090D101CF
:10747000A090D201B090D30196E4691609F05DC0E6
:1074800083E0F40180935700E89507B600FCFDCF38
:1074900054C0F6E46F1661F5772031F1E090D00129
:1074A000F090D1010091D2011091D30180DED82E4D
:1074B000CC24852D90E08C299D29F7010C01409268
:1074C0005700E895112482E090E0A0E0B0E0E80EDB
:1074D000F91E0A1F1B1FE092D001F092D101009308
:1074E000D2011093D30102C062DE582E742423C04F
:1074F000E090D001F090D1010091D2011091D30120
:1075000016950795F794E79452DE682FC701E7D4E4
:107510008091D0019091D101A091D201B091D3017D
:107520000296A11DB11D8093D0019093D101A0932B
:10753000D201B093D301219704C055247724442469
:107540004394209709F0A5CF96E4691641F485E0AD
:10755000F40180935700E89507B600FCFDCF8DE05D
:107560003EDE82E080936F009CC0833471F4009112
:10757000D0011091D1011BDE90E021E0F8010C0157
:1075800020935700E89511247CCE833619F5E090BE
:10759000D001F090D1010091D2011091D30107DE0A
:1075A000F701E16090E021E00C0120935700E8959D
:1075B000112482E090E0A0E0B0E0E80EF91E0A1F7E
:1075C0001B1FE092D001F092D1010093D2011093E1
:1075D000D30157CE8D3661F4E091D001F091D10105
:1075E00085E080935700E89507B600FCFDCF49CEB3
:1075F000823551F4E091D001F091D10105911491BF
:10760000812FEDDD802F4CC0843421F5E090D00136
:10761000F090D1010091D2011091D30116950795F8
:10762000F794E794C4DD682FC70159D48091D00145
:107630009091D101A091D201B091D3010296A11DE8
:10764000B11D8093D0019093D101A093D201B0934A
:10765000D30117CE843609F5E090D001F090D10126
:107660000091D2011091D301D801C701B695A79519
:10767000979587952CD4B3DD82E090E0A0E0B0E050
:10768000E80EF91E0A1F1B1FE092D001F092D101F3
:107690000093D2011093D30104C08B3111F08FE31A
:1076A0009EDD83E08093E9009091E8008091E800FE
:1076B0008E778093E80095FF04C010C08EB38823B6
:1076C000C9F08091E80080FFF9CF8091E8008E77C3
:1076D0008093E80003C08EB3882361F08091E800B6
:1076E00080FFF9CF84E08093E9008091E8008B77F8
:1076F0008093E800DF91CF911F910F91FF90EF9061
:10770000DF90CF90BF90AF909F908F907F906F90C1
:107710005F904F9008959091D801892F8F77813293
:1077200049F58091D9018032A1F0813219F5913A61
:1077300009F58091E800877F8093E8008DE091E073
:1077400067E070E0FBD18091E8008B778093E800E0
:107750000895913279F48091E800877F8093E80062
:107760008DE091E067E070E04DD28091E8008E7787
:107770008093E800089582E061EC42E0A7D083E0C6
:1077800061E842E1A3D084E060E842E19FC084B7B1
:10779000877F84BF88E10FB6F894809360001092D1
:1077A00060000FBE20E880E090E00FB6F8942093D0
:1077B0006100809361000FBE81E085BF92E095BFBC
:1077C0003F9AE1E6F0E0208310824798109289000A
:1077D0008DE78093880090936F0083E08093810011
:1077E000E6C04091000850910108109201081092E3
:1077F000000824B714BE88E10FB6F89480936000A7
:10780000109260000FBEE0E0F0E0859194918F5FF0
:107810009F4F71F020FD0BC021FD0AC0283041F4BC
:107820008091090190910A014817590709F05ADC23
:10783000AEDF78941092CF011092CE010CC0EDDC37
:1078400034D38091CE019091CF018151974210F0B5
:107850001092140157DC80911401882381F78091E4
:10786000E00081608093E0003DDC80E090E00895DE
:10787000FA01923049F0933061F09130F9F485E1EA
:1078800091E022E130E01EC087E291E02EE330E09B
:1078900019C0882329F485E691E024E030E012C085
:1078A000813029F489E691E022E230E00BC0823099
:1078B00029F487E991E028E130E004C080E090E01D
:1078C00020E030E091838083C90108958093E9002E
:1078D0008091EB0081608093EB001092ED0060934B
:1078E000EC004093ED008091EE00881F8827881FF0
:1078F00008958091D80188238CF403C08EB3882327
:10790000B1F08091E80082FFF9CF8091E8008B7799
:107910008093E80008958EB3882349F08091E800B1
:1079200080FFF9CF8091E8008E778093E80008957A
:10793000EF92FF920F931F9345D04CD008ED10E0CB
:10794000F80180818F778083808180688083808147
:107950008F7D808319BC1EBA1092D60180EEE82E6E
:10796000F12CF70180818B7F8083F8018081816019
:10797000808380E060E042E0A9DFE1EEF0E080811A
:107980008E7F8083E2EEF0E0808181608083808161
:1079900088608083F70180818E7F8083F8018081F9
:1079A000806180831F910F91FF90EF900895E7ED24
:1079B000F0E08081816080838AE482BF81E08093EF
:1079C000D701B6CFE8EDF0E080818E7F8083109202
:1079D000E20008951092DA001092E10008951F92DB
:1079E0000F920FB60F9211242F933F934F935F93F3
:1079F0006F937F938F939F93AF93BF93EF93FF9377
:107A00008091DA0080FF1AC08091D80080FF16C0F4
:107A10008091DA008E7F8093DA008091D90080FF18
:107A20000AC019BC82E089BD09B400FEFDCF81E027
:107A30008EBB3AD203C019BC1EBA36D28091E10087
:107A400080FF17C08091E20080FF13C08091E200A8
:107A50008E7F8093E2008091E20080618093E2005B
:107A60008091D80080628093D80019BC85E08EBBDD
:107A70001BD28091E10084FF2BC08091E20084FF43
:107A800027C019BC82E089BD09B400FEFDCF8091FA
:107A9000D8008F7D8093D8008091E1008F7E809305
:107AA000E1008091E2008F7E8093E2008091E2000D
:107AB00081608093E2008091D601882331F4809127
:107AC000E30087FD02C081E001C084E08EBBECD101
:107AD0008091E10083FF21C08091E20083FF1DC0FF
:107AE0008091E100877F8093E10082E08EBB10925D
:107AF000D6018091E1008E7F8093E1008091E200C9
:107B00008E7F8093E2008091E20080618093E200AA
:107B100080E060E042E0DADEC7D1FF91EF91BF91F3
:107B2000AF919F918F917F916F915F914F913F9115
:107B30002F910F900FBE0F901F9018959C014091B0
:107B4000DE015091DF014617570718F4F90190E064
:107B500044C06115710511F0AB01F8CF8091E800C8
:107B60008E778093E80040E050E0F0CF8EB388231A
:107B700009F444C0853009F443C08091E80083FFD4
:107B800002C081E008958091E80082FD31C08091BB
:107B9000E80080FF22C08091F3009091F200782FDE
:107BA00060E0292F30E0262B372B07C0819180938E
:107BB000F100415050402F5F3F4F4115510519F0E2
:107BC0002830310598F390E02830310509F491E030
:107BD0008091E8008E778093E8004115510531F6D9
:107BE000992321F605C08EB3882341F0853041F0FA
:107BF0008091E80082FFF7CF80E0089582E0089549
:107C000083E008959C016115710529F48091E800D5
:107C10008B778093E800F90126C08EB3882391F119
:107C2000853091F18091E80083FF02C081E00895E2
:107C30008091E80082FFF1CF06C08091F10081932E
:107C40006150704059F02091F3008091F200322F82
:107C500020E090E0822B932B892B79F78091E8002C
:107C60008B778093E80061157105B9F605C08EB376
:107C7000882341F0853041F08091E80080FFF7CF04
:107C800080E0089582E0089583E008950F931F93A4
:107C9000DF93CF9300D0CDB7DEB7E8EDF1E0809170
:107CA000F100819381E0E03EF807C9F734DD80916F
:107CB000E80083FFE4C08091D8019091D90195300C
:107CC00009F46DC0963040F4913081F1913070F03C
:107CD000933009F0D4C02AC0983009F4A3C0993079
:107CE00009F4B2C0963009F0CAC07CC0803809F4EB
:107CF000C6C0823809F0C3C08091DC0187708093D0
:107D0000E9008091EB001092E9002091E800277FC4
:107D10002093E80090E025E0969587952A95E1F775
:107D200081708093F1001092F10087C0882319F0D0
:107D3000823009F0A4C08F71823009F0A0C0809118
:107D4000DA01882331F52091DC01277009F497C00E
:107D50002093E9008091EB0080FF1BC0933021F459
:107D60008091EB00806213C08091EB008061809372
:107D7000EB0081E090E002C0880F991F2A95E2F79E
:107D80008093EA001092EA008091EB008860809373
:107D9000EB001092E9008091E800877F51C08823B2
:107DA00009F06DC01091DA011F770FB7F894809138
:107DB000E800877F8093E8009CDD8091E80080FFE9
:107DC000FCCF8091E3008078812B8093E300806872
:107DD0008093E300112311F482E001C083E08EBBA5
:107DE0000FBF4DC08058823008F049C08091DA0141
:107DF0009091DB016091DC01AE014F5F5F4F38DD98
:107E0000BC01009709F43BC08091E800877F809314
:107E1000E80089819A8192DE8091E8008B778093D7
:107E2000E8002DC0803859F58091E800877F809365
:107E3000E8008091D6018093F1008091E8008E7770
:107E40008093E80056DD1BC08823C9F49091DA01C5
:107E50009230A8F48091E800877F8093E8009093A7
:107E6000D60147DD8091D601882331F48091E3006B
:107E700087FD02C081E001C084E08EBB7CDC809184
:107E8000E80083FF0AC08091EB0080628093EB00E2
:107E90008091E800877F8093E8000F900F90CF914A
:107EA000DF911F910F91089508951F938EB388233A
:107EB00061F01091E9001092E9008091E80083FFE1
:107EC00001C0E4DE17701093E9001F910895F9993D
:107ED000FECF92BD81BDF89A992780B50895262FCF
:107EE000F999FECF1FBA92BD81BD20BD0FB6F8949F
:0E7EF000FA9AF99A0FBE01960895F894FFCF02
:107EFE004341544552494E41007777000800000037
:107F0E00000000080112011001020000089A230C63
:107F1E000001000201000109023E00020100803250
:107F2E0009040000010202010005240010010424CE
:107F3E0002040524060001070582030800FF090458
:107F4E000100020A000000070504021000010705E7
:107F5E00830210000104030904220341006400613E
:107F6E00006600720075006900740020004600650E
:107F7E00006100740068006500720020003300325A
:107F8E0000750034000000180341006400610066B3
:107F9E00007200750069007400200049006E0064D4
:107FAE000075007300740072006900650073002094
:0A7FBE00004C004C004300000000DE
:040000030000700089
:00000001FF
